:100000000C9453000C9470000C9470000C947000CD
:100010000C9470000C9470000C9470000C947000A0
:100020000C9470000C9470000C9470000C94700090
:100030000C9470000C9470000C9470000C94700080
:100040000C9470000C9470000C9470000C94700070
:100050000C9470008B018D018F019101930195012A
:1000600097019901A601A801AA01AC01AE01B00156
:10007000B201B401C101C101C301C501C701C90178
:10008000CB01CD01CF010E0A120A160A1A0A1E0A66
:10009000220A260A2A0A3B0A410A470A4D0A530A3B
:1000A000590A5F0A650A11241FBECFE5D8E0DEBFFA
:1000B000CDBF10E0A0E6B0E0E0E1FBE102C00590BA
:1000C0000D92AA38B107D9F720E0AAE8B0E001C044
:1000D0001D92AC38B207E1F70E946B080C94860DB4
:1000E0000C940000CF93C0E08C2F80680E94F80829
:1000F00088E80E94F80880EC0E948F0980E00E9446
:100100008F09CF5FC03181F7C0E08C2F80680E94DB
:10011000F8088CE80E94F80880EC0E948F0980E0C3
:100120000E948F09CF5FC03181F7CF91089523B727
:10013000206223BF23B72F7E23BFBC0180E090E065
:100140000E94440C2BED39EF4EE75EE30E94D20C87
:100150000E94150C6CBF8FE19EE40197F1F700C07F
:100160000000089580E30E94F80880E80E94F808E3
:1001700080E690E00E94BA0985E80E94F8088CE6C3
:1001800090E00E94BA0980E90E94F80882E790E0B6
:100190000E94BA0987E90E94F8088FE790E00E9460
:1001A000BA0988E90E94F80881E890E00E94BA093B
:1001B0000895CF938EE80E94F8088AE80E94F80814
:1001C0008FEF0E948F098FEF0E948F098FE80E94A6
:1001D000F8088AE80E94F8088FEF0E948F098FEFD5
:1001E0000E948F098EE80E94F8088BE80E94F808A8
:1001F0008FEF0E948F098FEF0E948F098FE80E9476
:10020000F8088BE80E94F8088FEF0E948F098FEFA3
:100210000E948F09C0E08C2F80680E94F8088CE84B
:100220000E94F80880EC0E948F0980E00E948F09EC
:10023000CF5FC03181F7C0E08C2F80680E94F80842
:100240008FE80E94F80880E00E948F0983E00E94F6
:100250008F09CF5FC03181F78EE80E94F8088EE8E1
:100260000E94F8088FEF0E948F098FEF0E948F097C
:100270008FE80E94F8088EE80E94F8088FEF0E942D
:100280008F098FEF0E948F098EE80E94F8088FE88F
:100290000E94F8088FEF0E948F098FEF0E948F094C
:1002A0008FE80E94F8088FE80E94F8088FEF0E94FC
:1002B0008F098FEF0E948F09CF9108950F931F939D
:1002C000CF93DF9300E0D0E013C08C2F80680E94B2
:1002D000F808812F0E94F8088D2F0E948F098D2F1A
:1002E0000E948F09CF5FC03281F70F5F003221F08B
:1002F000CD2F102F1068E9CFDF91CF911F910F9173
:10030000089590E0FC013197E830F105A0F4E65D36
:10031000FF4F0C943F0D80E8089580EC089580EE27
:10032000089580EF089588EF08958CEF08958EEF7B
:1003300008958FEF089580E0089590E0883091054A
:10034000A8F4FC01EE5CFF4F0C943F0D8FEF089575
:100350008FE708958FE308958FE108958FE0089562
:1003600087E0089583E0089581E0089580E008958E
:1003700090E089309105A8F4FC01E65CFF4F0C94F5
:100380003F0D80EC089580E6089580E3089588E1AC
:1003900008958CE0089586E0089583E0089583E051
:1003A000089580E00895FF920F931F93CF93DF93FA
:1003B0008C01419710F000E110E086E30E94F808FC
:1003C00080918A0090918B00419708F080C0C0E036
:1003D0000F2EF8EFFF2EF02DF00E8C2F80680E946C
:1003E000F80888E80E94F8080830110558F08F2DA9
:1003F0000E94B801D82F80E00E948F098D2F0E94A3
:100400008F0908C0802F0E94B8010E948F0980E0E8
:100410000E948F09CF5FC03101F7C0E08C2F806848
:100420000E94F80889E80E94F80880E00E948F097D
:1004300080E00E948F09CF5FC03181F748C08C2FC8
:1004400080680E94F80888E80E94F80808301105C2
:1004500058F08D2F0E948101F82E8FEF0E948F0996
:100460008F2D0E948F0905C0802F0E9481010E945C
:100470008F09CF5FC23019F7CEE00F2EF8EFFF2EB5
:10048000F02DF00E8C2F80680E94F80888E80E94FA
:10049000F8080830110558F08F2D0E949D01D82FC3
:1004A00080E00E948F098D2F0E948F0908C0802F45
:1004B0000E949D010E948F098FEF0E948F09CF5FDC
:1004C000C03101F708C080E30E94F80823C0C0E0F3
:1004D000D8EFD00FB4CF80918A0090918B004197D4
:1004E00090F78EE80E94F80889E80E94F8088FEFDC
:1004F0000E948F098FEF0E948F098FE80E94F808F1
:1005000089E80E94F8088FEF0E948F098FEF0E9400
:100510008F09D9CFDF91CF911F910F91FF9008954F
:10052000FF920F931F93CF93DF938C01419710F0AD
:1005300000E110E086E30E94F80880918A00909123
:100540008B00819708F080C0C0E00F2EF8EFFF2EDF
:10055000F02DF00E8C2F80680E94F80889E80E9428
:10056000F8080830110558F08F2D0E94B801D82FD7
:1005700080E00E948F098D2F0E948F0908C0802F74
:100580000E94B8010E948F0980E00E948F09CF5F0E
:10059000C03101F7C0E08C2F80680E94F8088AE81B
:1005A0000E94F80880E00E948F0980E00E948F0975
:1005B000CF5FC03181F748C08C2F80680E94F80857
:1005C00089E80E94F8080830110558F08D2F0E9424
:1005D0008101F82E8FEF0E948F098F2D0E948F09C5
:1005E00005C0802F0E9481010E948F09CF5FC23019
:1005F00019F7CEE00F2EF8EFFF2EF02DF00E8C2F16
:1006000080680E94F80889E80E94F80808301105FF
:1006100058F08F2D0E949D01D82F80E00E948F09F5
:100620008D2F0E948F0908C0802F0E949D010E947B
:100630008F098FEF0E948F09CF5FC03101F708C08B
:1006400080E30E94F80823C0C0E0D8EFD00FB4CFF9
:1006500080918A0090918B00819790F78EE80E949C
:10066000F8088AE80E94F8088FEF0E948F098FEF40
:100670000E948F098FE80E94F8088AE80E94F80813
:100680008FEF0E948F098FEF0E948F09D9CFDF91E2
:10069000CF911F910F91FF900895FF920F931F9399
:1006A000CF93DF938C0186E30E94F80880918A0043
:1006B00090918B00819708F4AFC0C0E00F2EF8EF47
:1006C000FF2EF02DF00E8C2F80680E94F8088AE82B
:1006D0000E94F8080830110558F08F2D0E94B801CB
:1006E000D82F80E00E948F098D2F0E948F0908C0AB
:1006F000802F0E94B8010E948F0980E00E948F091C
:10070000CF5FC03101F7C0E08C2F80680E94F808ED
:1007100089E80E94F80880E00E948F0980E00E942A
:100720008F09CF5FC03181F777C0C0E08C2F806820
:100730000E94F8088BE80E94F80880E00E948F0968
:1007400080E00E948F09CF5FC03181F78EE80E9460
:10075000F8088BE80E94F8088FEF0E948F098FEF4E
:100760000E948F098FE80E94F8088BE80E94F80821
:100770008FEF0E948F098FEF0E948F09C0E00F2E2C
:10078000F8EFFF2EF02DF00E8C2F80680E94F808F5
:100790008AE80E94F8080830110558F08F2D0E9451
:1007A0008101D82F8FEF0E948F098D2F0E948F0912
:1007B00005C0802F0E9481010E948F09CF5FC23047
:1007C00019F7CEE00F2EF8EFFF2EF02DF00E8C2F44
:1007D00080680E94F8088AE80E94F808083011052D
:1007E00058F08F2D0E949D01D82F80E00E948F0924
:1007F0008D2F0E948F0908C0802F0E949D010E94AA
:100800008F098FEF0E948F09CF5FC03101F70CC0B5
:1008100080E30E94F80827C080918A0090918B00A5
:10082000C09708F482CFAACF80918A0090918B0064
:10083000819770F380E80E94F80889E80E94F80820
:100840008FEF0E948F098FEF0E948F0981E80E942D
:10085000F80889E80E94F8088FEF0E948F098FEF4F
:100860000E948F09D5CFDF91CF911F910F91FF90FB
:100870000895FF920F931F93CF93DF938C01C1973D
:1008800008F477C000E110E074C0C0E00F2EF8EF6C
:10089000FF2EF02DF00E8C2F80680E94F8088BE858
:1008A0000E94F8080830110558F08F2D0E94B801F9
:1008B000D82F80E00E948F098D2F0E948F0908C0D9
:1008C000802F0E94B8010E948F0980E00E948F094A
:1008D000CF5FC03101F7C0E00F2EF8EFFF2EF02DF3
:1008E000F00E8C2F80680E94F8088BE80E94F808B0
:1008F0000830110558F08F2D0E948101D82F8FEFFD
:100900000E948F098D2F0E948F0905C0802F0E94A1
:1009100081010E948F09CF5FC23019F7CEE00F2E00
:10092000F8EFFF2EF02DF00E8C2F80680E94F80853
:100930008BE80E94F8080830110558F08F2D0E94AE
:100940009D01D82F80E00E948F098D2F0E948F0972
:1009500008C0802F0E949D010E948F098FEF0E9486
:100960008F09CF5FC03101F70FC080E30E94F80804
:100970002AC086E30E94F80880918A0090918B003B
:10098000C19708F082CFA7CF80918A0090918B0009
:10099000C19758F380E80E94F8088AE80E94F80896
:1009A0008FEF0E948F098FEF0E948F0981E80E94CC
:1009B000F8088AE80E94F8088FEF0E948F098FEFED
:1009C0000E948F09D2CFDF91CF911F910F91FF909D
:1009D0000895FF920F931F93CF93DF938C0141975C
:1009E00010F000E110E086E30E94F80880918A0090
:1009F00090918B00419708F080C0C0E00F2EF8EF77
:100A0000FF2EF02DF00E8C2F80680E94F8088CE8E5
:100A10000E94F8080830110558F08F2D0E94B80187
:100A2000D82F80E00E948F098D2F0E948F0908C067
:100A3000802F0E94B8010E948F0980E00E948F09D8
:100A4000CF5FC03101F7C0E08C2F80680E94F808AA
:100A50008DE80E94F80880E00E948F0980E00E94E3
:100A60008F09CF5FC03181F748C08C2F80680E940A
:100A7000F8088CE80E94F8080830110558F08D2F0E
:100A80000E948101F82E8FEF0E948F098F2D0E9406
:100A90008F0905C0802F0E9481010E948F09CF5FBE
:100AA000C23019F7CEE00F2EF8EFFF2EF02DF00E2A
:100AB0008C2F80680E94F8088CE80E94F8080830A3
:100AC000110558F08F2D0E949D01D82F80E00E94C3
:100AD0008F098D2F0E948F0908C0802F0E949D01D1
:100AE0000E948F098FEF0E948F09CF5FC03101F7FD
:100AF00008C080E30E94F80823C0C0E0D8EFD00F00
:100B0000B4CF80918A0090918B00419790F78EE846
:100B10000E94F8088DE80E94F8088FEF0E948F0964
:100B20008FEF0E948F098FE80E94F8088DE80E94DD
:100B3000F8088FEF0E948F098FEF0E948F09D9CF9D
:100B4000DF91CF911F910F91FF90089580918A00BE
:100B500090918B000E94D30180918A0090918B002C
:100B60000E94E9040895FF920F931F93CF93DF93A0
:100B70008C01419710F000E110E086E30E94F80834
:100B800080918A0090918B00819708F091C0C0E01D
:100B90000F2EF8EFFF2EF02DF00E8C2F80680E94A4
:100BA000F8088DE80E94F8080830110558F08F2DDC
:100BB0000E94B801D82F80E00E948F098D2F0E94DB
:100BC0008F0908C0802F0E94B8010E948F0980E021
:100BD0000E948F09CF5FC03101F7C0E08C2F806881
:100BE0000E94F8088EE80E94F80880E00E948F09B1
:100BF00080E00E948F09CF5FC03181F7C0E08C2F69
:100C000080680E94F8088CE80E94F80880E00E9442
:100C10008F0980E00E948F09CF5FC03181F748C003
:100C20008C2F80680E94F8088DE80E94F808083030
:100C3000110558F08D2F0E948101F82E8FEF0E9430
:100C40008F098F2D0E948F0905C0802F0E9481017E
:100C50000E948F09CF5FC23019F7CEE00F2EF8EF58
:100C6000FF2EF02DF00E8C2F80680E94F8088DE882
:100C70000E94F8080830110558F08F2D0E949D0140
:100C8000D82F80E00E948F098D2F0E948F0908C005
:100C9000802F0E949D010E948F098FEF0E948F0973
:100CA000CF5FC03101F708C080E30E94F80823C07D
:100CB000C0E0D8EFD00FB4CF80918A0090918B0024
:100CC000819790F78EE80E94F8088EE80E94F80855
:100CD0008FEF0E948F098FEF0E948F098FE80E948B
:100CE000F8088EE80E94F8088FEF0E948F098FEFB6
:100CF0000E948F09D9CFDF91CF911F910F91FF9063
:100D00000895CF93DF93C0918A00D0918B006097B4
:100D1000CE010E949002CE010E94B305DF91CF91D7
:100D20000895FF920F931F93CF93DF938C0186E377
:100D30000E94F80880918A0090918B00819708F4B6
:100D4000AFC0C0E00F2EF8EFFF2EF02DF00E8C2F6D
:100D500080680E94F8088EE80E94F80808301105A3
:100D600058F08F2D0E94B801D82F80E00E948F0983
:100D70008D2F0E948F0908C0802F0E94B8010E9409
:100D80008F0980E00E948F09CF5FC03101F7C0E07A
:100D90008C2F80680E94F8088DE80E94F80880E097
:100DA0000E948F0980E00E948F09CF5FC03181F7D8
:100DB00077C0C0E08C2F80680E94F8088FE80E94FE
:100DC000F80880E00E948F0980E00E948F09CF5FC1
:100DD000C03181F78EE80E94F8088FE80E94F80879
:100DE0008FEF0E948F098FEF0E948F098FE80E947A
:100DF000F8088FE80E94F8088FEF0E948F098FEFA4
:100E00000E948F09C0E00F2EF8EFFF2EF02DF00E9C
:100E10008C2F80680E94F8088EE80E94F80808303D
:100E2000110558F08F2D0E948101D82F8FEF0E945D
:100E30008F098D2F0E948F0905C0802F0E9481018C
:100E40000E948F09CF5FC23019F7CEE00F2EF8EF66
:100E5000FF2EF02DF00E8C2F80680E94F8088EE88F
:100E60000E94F8080830110558F08F2D0E949D014E
:100E7000D82F80E00E948F098D2F0E948F0908C013
:100E8000802F0E949D010E948F098FEF0E948F0981
:100E9000CF5FC03101F70CC080E30E94F80827C083
:100EA00080918A0090918B00C09708F482CFAACFDE
:100EB00080918A0090918B00819770F380E80E9466
:100EC000F8088DE80E94F8088FEF0E948F098FEFD5
:100ED0000E948F0981E80E94F8088DE80E94F808B6
:100EE0008FEF0E948F098FEF0E948F09D5CFDF917E
:100EF000CF911F910F91FF900895CF93DF93C091F1
:100F00008A00D0918B00A097CE010E944D03CE01A4
:100F10000E949106DF91CF910895FF920F931F9346
:100F2000CF93DF938C01C19708F48FC000E110E0EC
:100F30008CC0C0E00F2EF8EFFF2EF02DF00E8C2F9E
:100F400080680E94F8088FE80E94F80808301105B0
:100F500058F08F2D0E94B801D82F80E00E948F0991
:100F60008D2F0E948F0908C0802F0E94B8010E9417
:100F70008F0980E00E948F09CF5FC03101F7C0E088
:100F80000F2EF8EFFF2EF02DF00E8C2F80680E94B0
:100F9000F8088FE80E94F8080830110558F08F2DE6
:100FA0000E948101D82F8FEF0E948F098D2F0E9400
:100FB0008F0905C0802F0E9481010E948F09CF5F99
:100FC000C23019F7CEE00F2EF8EFFF2EF02DF00E05
:100FD0008C2F80680E94F8088FE80E94F80808307B
:100FE000110558F08F2D0E949D01D82F80E00E949E
:100FF0008F098D2F0E948F0908C0802F0E949D01AC
:101000000E948F098FEF0E948F09CF5FC03101F7D7
:1010100027C080E80E94F8088EE80E94F8088FEF49
:101020000E948F098FEF0E948F0981E80E94F808C3
:101030008EE80E94F8088FEF0E948F098FEF0E94C0
:101040008F0980E30E94F80830C086E30E94F80808
:1010500080918A0090918B00C19708F06ACF8FCF62
:1010600080918A0090918B00C19798F68EE80E943B
:10107000F8088FE80E94F8088FEF0E948F098FEF21
:101080000E948F098FE80E94F8088FE80E94F808F4
:101090008FEF0E948F098FEF0E948F0980918A0045
:1010A00090918B00C19768F2B4CFDF91CF911F91DF
:1010B0000F91FF900895CF93DF93C0918A00D09154
:1010C0008B00E097CE010E943904CE010E948D076B
:1010D000DF91CF91089585E00E94520B0E94F009A4
:1010E0000E9423090E94EC0967E081E00E94F60952
:1010F00084E30E94F8082FEF81EE94E021508040B5
:101100009040E1F700C0000086E30E94F8082FEF4E
:1011100089E698E1215080409040E1F700C000004E
:101120000E945E010E94D9002FEF89EF90E02150CC
:1011300080409040E1F700C000000E94B20081E0D2
:101140000E94320AEC010E949700BE0180E090E00C
:101150000E94440C2AE037ED43E251E40E94A30BC5
:101160000E94150C6B017C01672BC1F186E90E947E
:10117000F808E12CF12CC701B6010E94CF09C70184
:10118000B6010E94440C2AE037ED43E25FE30E947F
:10119000D20C0E94150C70938B0060938A0086E33A
:1011A0000E94F8080E9472000E94A60580918A00A1
:1011B00090918B00409710F00E94810680918A00E8
:1011C00090918B00809710F00E947D0780918A009B
:1011D00090918B00C09710F00E945B082FEF89EF71
:1011E00090E0215080409040E1F700C00000A7CF80
:1011F000CF93C82F40E061E081E00E94E10A40E027
:1012000062E081E00E94E10A40E067E083E00E9442
:10121000E10A8C2F807F8BBBCF70CC0FCC0FCC0F13
:10122000C5BB41E067E083E00E94E10A8FE99FE0EF
:101230000197F1F700C0000040E067E083E00E9402
:10124000E10ACF91089541E061E081E00E94700AD7
:1012500041E062E081E00E94700A41E067E083E0E3
:101260000E94700A41E064E083E00E94700A41E05D
:1012700065E083E00E94700A41E063E082E00E9442
:10128000700A41E064E082E00E94700A41E065E09B
:1012900082E00E94700A41E066E082E00E94700AEB
:1012A00041E064E080E00E94700A41E065E080E097
:1012B0000E94700A41E066E080E00E94700A41E00E
:1012C00067E080E00E94700A40E064E083E00E94F2
:1012D000E10A2FEF83EF91E0215080409040E1F749
:1012E00000C0000041E064E083E00E94E10A41E0C8
:1012F00065E083E00E94E10A83E30E94F80882E34C
:101300000E94F80881E00E94F80882E00E94F80834
:101310008CE00E94F80886E00E94F8080895CF93B8
:10132000C82F41E061E081E00E94E10A40E062E014
:1013300081E00E94E10A40E067E083E00E94E10A68
:101340008C2F807F8BBBCF70CC0FCC0FCC0FC5BB4D
:1013500041E067E083E00E94E10A8FE99FE00197A6
:10136000F1F700C0000040E067E083E00E94E10A7E
:10137000CF910895CF93DF93EC018881882361F0AA
:1013800021960E948F098FE39CE90197F1F700C035
:10139000000089918111F5CFDF91CF910895CF930E
:1013A000DF93CDB7DEB72A970FB6F894DEBF0FBE36
:1013B000CDBF2AE0AE014F5F5F4F0E94450DCE01C9
:1013C00001960E94BA092A960FB6F894DEBF0FBEA6
:1013D000CDBFDF91CF91089581E00E94F808089574
:1013E00041E062E082E00E94700A0895813039F0A5
:1013F00018F0823039F008C03F983E9805C03F98F9
:101400003E9A02C03F9A3E9A862F90E0883091051E
:1014100020F5FC01ED5BFF4F0C943F0D32983198A5
:1014200030981BC032983198309A17C03298319A50
:10143000309813C03298319A309A0FC0329A31984E
:1014400030980BC0329A3198309A07C0329A319A4C
:10145000309803C0329A319A309A379A3398359A35
:101460003D98089590E088309105A0F5FC01E55B7A
:10147000FF4F0C943F0D3C983B983A983998389818
:1014800029C03C983B983A983998389A23C03C98A0
:101490003B983A98399A38981DC03C983B983A98AE
:1014A000399A389A17C03C983B983A9A39983898A4
:1014B00011C03C983B983A9A3998389A0BC03C989E
:1014C0003B983A9A399A389805C03C983B983A9A92
:1014D000399A389A369A349BFECF84B195B10895E3
:1014E000442319F04130C9F10895813091F028F07A
:1014F0008230D9F0833029F108952AB381E090E059
:1015000002C0880F991F6A95E2F7809582238ABBF3
:10151000089527B381E090E002C0880F991F6A9573
:10152000E2F78095822387BB089524B381E090E0A1
:1015300002C0880F991F6A95E2F78095822384BBC9
:10154000089521B381E090E002C0880F991F6A9549
:10155000E2F78095822381BB0895813089F028F0DD
:101560008230C9F0833011F108952AB381E090E010
:1015700002C0880F991F6A95E2F7822B8ABB0895F3
:1015800027B381E090E002C0880F991F6A95E2F7C7
:10159000822B87BB089524B381E090E002C0880FBE
:1015A000991F6A95E2F7822B84BB089521B381E0ED
:1015B00090E002C0880F991F6A95E2F7822B81BBE9
:1015C0000895442319F04130C9F10895813091F014
:1015D00028F08230D9F0833029F108952BB381E0CF
:1015E00090E002C0880F991F6A95E2F780958223E8
:1015F0008BBB089528B381E090E002C0880F991F4B
:101600006A95E2F78095822388BB089525B381E02F
:1016100090E002C0880F991F6A95E2F780958223B7
:1016200085BB089522B381E090E002C0880F991F26
:101630006A95E2F78095822382BB0895813089F014
:1016400028F08230C9F0833011F108952BB381E086
:1016500090E002C0880F991F6A95E2F7822B8BBB3E
:10166000089528B381E090E002C0880F991F6A9521
:10167000E2F7822B88BB089525B381E090E002C099
:10168000880F991F6A95E2F7822B85BB089522B3D4
:1016900081E090E002C0880F991F6A95E2F7822BE3
:1016A00082BB089593B7986093BF93B7906493BF3C
:1016B000BB9A823001F128F4882349F0813089F007
:1016C0000895843061F108F1853099F1089583B768
:1016D0008B7F83BF83B78D7F83BF83B78E7F83BFAD
:1016E000089583B78B7F83BF83B78D7F83BF83B715
:1016F000816083BF089583B78B7F83BF83B7826088
:1017000083BF83B78E7F83BF089583B78B7F83BFEB
:1017100083B7826083BF83B7816083BF089583B737
:10172000846083BF83B78D7F83BF83B78E7F83BF82
:10173000089583B7846083BF83B78D7F83BF83B7EA
:10174000816083BF08950E94B70B0C94980C0E948F
:10175000910C58F00E948A0C40F029F45F3F29F068
:101760000C94810C51110C94CC0C0C94870C0E949D
:10177000A90C68F39923B1F3552391F3951B550BED
:10178000BB27AA2762177307840738F09F5F5F4F54
:10179000220F331F441FAA1FA9F335D00E2E3AF093
:1017A000E0E832D091505040E695001CCAF72BD0AB
:1017B000FE2F29D0660F771F881FBB1F26173707FC
:1017C0004807AB07B0E809F0BB0B802DBF01FF272E
:1017D00093585F4F3AF09E3F510578F00C94810C7E
:1017E0000C94CC0C5F3FE4F3983ED4F38695779548
:1017F0006795B795F7959F5FC9F7880F911D9695E7
:10180000879597F90895E1E0660F771F881FBB1F42
:10181000621773078407BA0720F0621B730B840BEF
:10182000BA0BEE1F88F7E09508950E94B10C88F07E
:101830009F5798F0B92F9927B751B0F0E1F0660F94
:10184000771F881F991F1AF0BA95C9F714C0B130D5
:1018500091F00E94CB0CB1E008950C94CB0C672F53
:10186000782F8827B85F39F0B93FCCF38695779504
:101870006795B395D9F73EF49095809570956195ED
:101880007F4F8F4F9F4F0895E89409C097FB3EF418
:1018900090958095709561957F4F8F4F9F4F9923BD
:1018A000A9F0F92F96E9BB279395F695879577953B
:1018B0006795B795F111F8CFFAF4BB0F11F460FFFB
:1018C0001BC06F5F7F4F8F4F9F4F16C0882311F053
:1018D00096E911C0772321F09EE8872F762F05C067
:1018E000662371F096E8862F70E060E02AF09A9502
:1018F000660F771F881FDAF7880F9695879597F9F7
:10190000089597F99F6780E870E060E008959FEF81
:1019100080EC089500240A94161617061806090686
:10192000089500240A941216130614060506089555
:10193000092E0394000C11F4882352F0BB0F40F4DD
:10194000BF2B11F460FF04C06F5F7F4F8F4F9F4F1D
:10195000089557FD9058440F551F59F05F3F71F09F
:101960004795880F97FB991F61F09F3F79F0879506
:101970000895121613061406551FF2CF4695F1DF8F
:1019800008C0161617061806991FF1CF869571051F
:10199000610508940895E894BB2766277727CB0153
:1019A00097F908950E94E50C0C94980C0E948A0CFB
:1019B00038F00E94910C20F0952311F00C94810CCA
:1019C0000C94870C11240C94CC0C0E94A90C70F37D
:1019D000959FC1F3950F50E0551F629FF001729FD4
:1019E000BB27F00DB11D639FAA27F00DB11DAA1FE3
:1019F000649F6627B00DA11D661F829F2227B00D30
:101A0000A11D621F739FB00DA11D621F839FA00DBA
:101A1000611D221F749F3327A00D611D231F849F0A
:101A2000600D211D822F762F6A2F11249F57504061
:101A30009AF0F1F088234AF0EE0FFF1FBB1F661FDC
:101A4000771F881F91505040A9F79E3F510580F0A5
:101A50000C94810C0C94CC0C5F3FE4F3983ED4F3CF
:101A6000869577956795B795F795E7959F5FC1F749
:101A7000FE2B880F911D9695879597F90895EE0F87
:101A8000FF1F0590F491E02D0994BB272A3051F4F3
:101A9000992342F4BDE290958095709561957F4FB2
:101AA0008F4F9F4F0C94550DBB27FA01A62F62173D
:101AB000710581059105330B30FB66F0AA27660F8F
:101AC000771F881F991FAA1FA21710F0A21B6395EA
:101AD0003850A9F7A05DAA3308F0A95DA19336F7A5
:101AE000B111B1931082CA010C94760DDC01FC0196
:101AF000672F71917723E1F7329704C07C916D9342
:101B000070836291AE17BF07C8F30895F894FFCFB2
:101B10004672657175656E63793A200036312048EA
:101B20007A0064757479206379636C653A200025C6
:0A1B3000003C2074696D65203E0042
:00000001FF
